:100000002DC0FECFFDCFFCCFFBCFFACFF9CFF8CF7D
:10001000F7CFF6CFF5CFF4CFF3CFF2CFF1CFF0CFCC
:10002000EFCFEECFEDCF0000000000000000102762
:10003000E80364000A000100001000011000010044
:100040004142434400256325690A00000200020082
:1000500002004C000500600140000000F894EE270B
:10006000ECBBF1E0FBBFEBBFE5BFF8E1F1BDE1BDEB
:100070008DE0A2E0BB27ED938A95E9F780E094E05C
:10008000A0E6ED930197E9F7EEE4F0E08591959114
:10009000009761F0A591B59105901590BF01F00111
:1000A00005900D920197E1F7FB01F0CFEFE5EDBF71
:1000B000E4E0EEBFC0E6D1E077C0289788E0A0E09A
:1000C000B0E0E6E2F0E02DD220D206E010E020E140
:1000D00030E0359A369A002E012A99F1022E032A31
:1000E00099F0349BFECF349AE4B1F5B1AC81BD8177
:1000F0008E819F8166277727B9D1EC83FD836E833C
:100100007F8321503040EACFAC81BD818E819F81B9
:10011000E2E0B5D1EC83FD836E837F83A885B9854A
:100120008A859B85A3D1E887F9876A877B87E0E08A
:10013000EC83ED83EE83EF8320E130E0015010404B
:10014000CACFE6B1A0E2EA27E6B9A885B9858A85D3
:100150009B85E6E0F0E060E070E09DD1E887F987FC
:100160006A877B87D9D12C960895E1E0E8BBE7BB8D
:10017000E0E0E5BBE4BBECE4E2BBE4E8E1BBE0E0EB
:10018000E5BFEBB9EAB9E6E8E0BDE0E0E0BDECE0F0
:10019000E9B9E8E0EAB9E0E8E8B9E0E0E0BF3AD17F
:1001A000E5E8E6B978940895E0DF83993FC021FE41
:1001B00005C0C09A97989298E89421F820FE1EC036
:1001C000E5E4F0E0FA93EA93E7B1E770F0E0E05A93
:1001D000FE4FE081FF27662777278BD16EDF6627EA
:1001E000772787D188E0FAD02A96EDE016D1E7B1DB
:1001F000EF5FE7B9E7B1E43C09F40CD1869915C08B
:10020000E0E020FCE1E00BD120F8E0E0C099E1E083
:1002100006D1A8B3A0F9A8BBE0E09799E1E0FFD030
:10022000A2B3A7F9A2BB869BFECF07C0E89420F833
:10023000C0989798929A689421F8B7CFFFCF5F9BA8
:10024000FECFECB108955D9BFECFE881ECB921961D
:100250000895E9D0309741F0E6D03196ED93FC93C4
:100260003197AA81A08302C0EA81D7D0239608954E
:10027000249749D100E0EE85FF853196EE87FF8710
:10028000D6D009F4A8C0E02FE03031F4253211F4C3
:1002900001E001C0D1D09EC0E13089F4253219F4CB
:1002A000CBD000E097C002E030E010E02B3211F438
:1002B0003BE290C0203211F430E28CC002C0E23048
:1002C00031F4203319F4106105E084C003C0E53037
:1002D00009F080C0E22FE33629F4B4D0EC91EA9320
:1002E000B8D077C0E33769F4ADD0B8D0AE81BF8164
:1002F000ED91AE83BF832E2FE03011F09DD0F6CF6D
:1003000068C0E03761F49ED0A9D0EE81FF813196BC
:10031000EE83FF838CD011F08FD0F7CF5AC0E43634
:1003200011F0E93611F4116002C0E53719F4EEE27C
:10033000F0E009C0E83511F4126003C0E83709F0B5
:1003400048C0E8E3F0E0EE83FF8310FF11C07AD0ED
:100350004D915C914050504034F4E42FF52F8BD0F8
:100360004E2F5F2F3DE2303011F03A9372D003C030
:1003700069D04D915C9120E3EE81FF813296EE834E
:10038000FF833297B2D0E887F9874E175F0720F0D6
:100390002F5F4E1B5F0BC9F714FD09C0E0E3E217A6
:1003A00030F0A885B985A130E0E0BE0751F41061B6
:1003B000E9E3E21728F411FF02C0295F01C0295DBB
:1003C0003BD0A885B985E1E0F0E0EA17FB0708F427
:1003D000D2CF00E050CF9ED060960895FF92F82EC5
:1003E000229795D0DE013ED00A2F1B2FE0E0EA8352
:1003F000EB83DE01149636D074D0FA93EA931A9305
:100400000A93FE013696FA93EA9332DF87D0249658
:10041000FF900895E0ECE7B90895EA9314CFA1E0C6
:10042000EA276CD00895A881B9815BD008953197EF
:10043000E4912E2FE03008952A93EB85FC85FA9302
:10044000EA9307CFAC85BD851497AC87BD8714961A
:100450000895EB85FC85FA93EA93FBCE42D0EE83B8
:10046000FF8308950024AF0DB01D0895EA0FFB1F10
:10047000681F791F0895E095F09531960895EE2351
:100480000E2EFD01BC0131F076956795F795E79545
:100490000A94D1F708953F934F935F93002411245A
:1004A0003327442750E2AA0FBB1F881F991F001C47
:1004B000111C331F441F0E1A1F0A360B470B28F45A
:1004C0000E0E1F1E361F471F01C0A1605A9559F717
:1004D000FD01BC01D001832F942F5F914F913F917B
:1004E0000895ED91FC91119708950590F491E02DF8
:1004F00008957A936A93FA93EA930895E89400240E
:10050000E011689408955A934A933A932A931A9360
:100510000A9308955D814C813B812A81198108816C
:100520000895AC0FBD1F05900D928A95E1F70895CF
:00000001FF
