:0A00000031C0FECFFDCFFCCFFBCFD7
:10000A00FACFF9CFF8CFF7CFF6CFF5CFF4CFF3CFBA
:10001A00F2CFF1CFF0CFEFCFEECFEDCF000000005F
:10002A00000000001027E80364000A000100001025
:10003A0000011000010000004142434400256325ED
:10004A00690D0A000200020002004E00050060016C
:10005A0042000200650140000000F894EE27ECBB64
:10006A00F1E0FBBFEBBFE5BFF8E1F1BDE1BD8DE01B
:10007A00A2E0BB27ED938A95E9F780E094E0A0E639
:10008A00ED930197E9F7E0E5F0E085919591009706
:10009A0061F0A591B59105901590BF01F001059009
:1000AA000D920197E1F7FB01F0CFEFE5EDBFE4E038
:1000BA00EEBFC0E6D1E0A6C080D200E010E020E0AA
:1000CA0030E020E030E02436E0E03E0768F4E0E08B
:1000DA00B19BE1E0F0E00E0F1F1FE1E0F0E0C7D1B5
:1000EA00FBD12F5F3F4FEFCFD801E4E6F0E019D202
:1000FA008F01E1E0F0E0E017F107C1F4E0E020FC55
:10010A00E1E0A1E0EA2752D220F8E0E0C099E1E07C
:10011A00EA2711F4C09801C0C09AE0E09799E1E09B
:10012A00A1E0EA2711F4979801C0979A4DD2249634
:10013A000895289788E0A0E0B0E0E6E2F0E049D22E
:10014A003CD206E010E020E130E0359A369A002EE3
:10015A00012A29F1022E032A69F0349BFECF349A30
:10016A00E4B1F5B187D166277727C6D188D1215066
:10017A003040F0CF7FD1E2E0C8D181D1EC81FD815E
:10018A006E817F8181D1B8D184D1E0E0EC83ED83A7
:10019A00EE83EF8320E130E001501040D8CFE6B182
:1001AA00A0E2EA27E6B970D1E6E0F0E060E070E0AC
:1001BA00CBD16FD1E885F9856A857B8505D22C96E6
:1001CA000895EEEFE8BBE1E0E7BBE0EFE5BBE0E076
:1001DA00E4BBEBE7E2BBE4E8E1BBE0E0E5BFEBB997
:1001EA00E8E0EAB9E6E8E0BDE0E0E0BDEBE0E9B965
:1001FA00E0E8E8B9E0E0E0BFE0ECE7B9E6E8E6B954
:10020A0078940895DEDF83992EC021FE05C0C09A36
:10021A0097989298E89421F820FE1FC0E7E4F0E04E
:10022A0026D1E7B1E770F0E0E05AFE4FE081FF2700
:10023A0066277727B6D17DDF66277727B2D188E090
:10024A00FAD02A96E7B1EF5FE7B9E7B1E43C11F4D7
:10025A00E0ECE7B989E18A95F1F7B19903C02CDF9F
:10026A00B19BFECF07C0E89420F8C0989798929A5D
:10027A00689421F8C8CFFFCF5F9BFECFECB10895F9
:10028A005D9BFECFE881ECB92196089598D1AC81A7
:10029A00BD817FD13097D1F0AA81BB817AD18F01FC
:1002AA00309749F00230E0E01E0778F0F801319704
:1002BA008F01ED93FC93AC81BD81ED91FD91319657
:1002CA00FE93EE933197AE81A08303C0EE81EA9349
:1002DA00D7DF7CD12796089524976DD110E0E8895D
:1002EA00F9893196E88BF98BD9D009F4A1C0E12FAD
:1002FA00E03031F4353211F411E001C0D4D097C0A6
:10030A00E13081F4353211F4CED090C012E020E011
:10031A0000E03B3211F42BE28AC0303211F420E2C1
:10032A0086C002C0E23031F4303319F4006115E0BE
:10033A007EC003C0E53009F07AC0E32FE33629F422
:10034A00BAD0EC91EA93BED071C0E33771F4B3D05E
:10035A0020D1BFD0AE81BF81ED91AE83BF833E2F46
:10036A00E03011F0A0D0F6CF61C0E03761F4A3D03D
:10037A0010D1AFD0EE81FF813196ABD08FD011F082
:10038A0092D0F8CF53C0E43611F0E93611F4016087
:10039A0002C0E53719F4EEE2F0E009C0E83511F4DD
:1003AA00026003C0E83709F041C0E8E3F0E0EE83F9
:1003BA00FF8300FF0FC07FD04D915C9140505040A9
:1003CA0024F4FA019ED0AF012DE2203011F02A93D5
:1003DA0079D003C070D04D915C9130E3EE81FF81FA
:1003EA00329677D03297D9D0E887F987E885F985A8
:1003FA004E175F0730F03F5FA885B9854A1B5B0B34
:10040A00F5CF04FD06C0313320F4A885B9851197CC
:10041A0049F400613A3328F001FF02C0395F01C094
:10042A00395D41D0A885B9851297B8F610E057CF43
:10043A00C9D062960895FF92F82E2297C0D0DE01A5
:10044A0057D08D01E0E0EA83EB83DE01149650D0A9
:10045A00A0D00DD01A930A93FE01369608D0E0E098
:10046A00F0E005D039DFB2D02496FF900895FA93D0
:10047A00EA930895AC81BD818E819F810895EC83B2
:10048A00FD836E837F830895A885B9858A859B85B8
:10049A000895E887F9876A877B8708953197E491F9
:1004AA003E2FE03008953A93ED85FE85E0DFFE01A8
:1004BA003D96DDDFEBCEAE85BF851497AE87BF874D
:1004CA0014960895ED85FE85D2DFFE013D96CFDFB5
:1004DA00DDCEEE83FF830895E991F991309639F0E4
:1004EA0083E397E00197F1F7A8953197C9F7089543
:1004FA000024AF0DB01D0895EA0FFB1F681F791F76
:10050A000895F195E195F0400895EE230E2EFD0130
:10051A00BC0131F076956795F795E7950A94D1F77E
:10052A0008950024112490E1AA0FBB1F001C111C7E
:10053A000E1A1F0A18F40E0E1F1E01C0A1609A950A
:10054A0099F7FD01D00108953F934F935F930024DB
:10055A0011244427552730E2AA0FBB1F881F991F71
:10056A00001C111C441F551F0E1A1F0A460B570B5D
:10057A0028F40E0E1F1E461F571F01C0A1603A9590
:10058A0059F7FD01BC01D001CA015F914F913F911A
:10059A000895ED91FC91119708950590F491E02D3D
:1005AA0008957A936A93FA93EA930895E894EE2366
:1005BA0009F0689408955A934A933A932A931A939E
:1005CA000A9308955D814C813B812A8119810881B2
:1005DA000895AC0FBD1F05900D928A95E1F7089515
:00000001FF
