:0800000022C0FECFFDCFFCCFB2
:10000800FBCFFACFF9CFF8CFF7CFF6CFF5CFF4CFB4
:10001800F3CFF2CFF1CFF0CFEFCFEECFEDCF00009F
:100028000000000000001027E80364000A00010037
:10003800001000011000010025690A000000F89472
:10004800EE27ECBBF1E0FBBFEBBFE5BFF8E1F1BD8C
:10005800E1BD8DE0A2E0BB27ED938A95E9F780E04A
:1000680094E0A0E6ED930197E9F7E4E4F0E08591E8
:100078009591009761F0A591B59105901590BF01F4
:10008800F00105900D920197E1F7FB01F0CFEFE544
:10009800EDBFE4E0EEBFC0E6D1E079C0289788E084
:1000A800A0E0B0E0E6E2F0E00CD2FFD10BE110E016
:1000B80020E130E0359A369A002E012A99F1022E75
:1000C800032A99F0349BFECF349AE4B1F5B1AC81A0
:1000D800BD818E819F816627772798D1EC83FD8328
:1000E8006E837F8321503040EACFAC81BD818E8101
:1000F8009F81E2E094D1EC83FD836E837F83A885A2
:10010800B9858A859B8582D1E887F9876A877B8745
:10011800E0E0EC83ED83EE83EF8320E130E00150F3
:100128001040CACFE6B1A0E2EA27E6B9A885B985AA
:100138008A859B85EBE1F0E060E070E07CD1E887A0
:10014800F9876A877B87B8D12C960895E3E0E8BBE6
:10015800E1E0E7BBE0E0E5BBE4BBE0E8E2BBE4E804
:10016800E1BBE0E0E5BFEBB9EAB9E6E8E0BDE0E015
:10017800E0BDECE0E9B9E8E0EAB9E0E8E8B9E0E0D8
:10018800E0BFE1ECE7B9E5E8E6B978940895DEDF89
:10019800C09A979820FE0DC0E0E4F0E0FA93EA9345
:1001A8007DDF6627772775D184E0EBD02696EDE0D2
:1001B80004D1B19915C0E0E020FCE1E000D120F8BD
:1001C800E0E0C099E1E0FBD0A8B3A0F9A8BBE0E06B
:1001D8009799E1E0F4D0A2B3A7F9A2BBB19BFECFF7
:1001E800D9CFFFCF5F9BFECFECB108955D9BFECFCB
:1001F800E881ECB921960895E6D0309741F0E3D034
:100208003196ED93FC933197AA81A08302C0EA81CD
:10021800D4D023960895249746D100E0EE85FF8533
:100228003196EE87FF87D3D009F4A8C0E02FE030DD
:1002380031F4253211F401E001C0CED09EC0E13086
:1002480089F4253219F4C8D000E097C002E030E004
:1002580010E02B3211F43BE290C0203211F430E26E
:100268008CC002C0E23031F4203319F4106105E08B
:1002780084C003C0E53009F080C0E22FE33629F4DA
:10028800B1D0EC91EA93B5D077C0E33769F4AAD03E
:10029800B5D0AE81BF81ED91AE83BF832E2FE03004
:1002A80011F09AD0F6CF68C0E03761F49BD0A6D0A1
:1002B800EE81FF813196EE83FF8389D011F08CD0D7
:1002C800F7CF5AC0E43611F0E93611F4116002C0D4
:1002D800E53719F4EEE2F0E009C0E83511F41260F0
:1002E80003C0E83709F048C0E8E3F0E0EE83FF8395
:1002F80010FF11C077D04D915C914050504034F4BC
:10030800E42FF52F88D04E2F5F2F3DE2303011F0CB
:100318003A936FD003C066D04D915C9120E3EE8193
:10032800FF813296EE83FF833297AFD0E887F98753
:100338004E175F0720F02F5F4E1B5F0BC9F714FDA8
:1003480009C0E0E3E21730F0A885B985A130E0E004
:10035800BE0751F41061E9E3E21728F411FF02C067
:10036800295F01C0295D38D0A885B985E1E0F0E0B2
:10037800EA17FB0708F4D2CF00E050CF9BD0609675
:100388000895FF92F82E229792D0DE013BD00A2FD3
:100398001B2FE0E0EA83EB83DE01149633D071D0A3
:1003A800FA93EA931A930A93FE013696FA93EA931C
:1003B80032DF84D02496FF900895EA9317CFA1E006
:1003C800EA276CD00895A881B9815BD00895319748
:1003D800E4912E2FE03008952A93EB85FC85FA935B
:1003E800EA930ACFAC85BD851497AC87BD87149670
:1003F8000895EB85FC85FA93EA93FECE42D0EE830E
:10040800FF8308950024AF0DB01D0895EA0FFB1F68
:10041800681F791F0895E095F09531960895EE23A9
:100428000E2EFD01BC0131F076956795F795E7959D
:100438000A94D1F708953F934F935F9300241124B2
:100448003327442750E2AA0FBB1F881F991F001C9F
:10045800111C331F441F0E1A1F0A360B470B28F4B2
:100468000E0E1F1E361F471F01C0A1605A9559F76F
:10047800FD01BC01D001832F942F5F914F913F91D3
:100488000895ED91FC91119708950590F491E02D50
:1004980008957A936A93FA93EA930895E894002466
:1004A800E011689408955A934A933A932A931A93B9
:1004B8000A9308955D814C813B812A8119810881C5
:1004C8000895AC0FBD1F05900D928A95E1F7089528
:00000001FF
