:0C00000021C0FECFFDCFFCCFFBCFFACF1C
:10000C00F9CFF8CFF7CFF6CFF5CFF4CFF3CFF2CFC0
:10001C00F1CFF0CFEFCFEECFEDCF00001027E803FC
:10002C0064000A00010000100001100001004330C0
:10003C002E25690A00000000F894EE27ECBBF1E0D5
:10004C00FBBFEBBFE5BFF8E1F1BDE1BD8DE0A2E088
:10005C00BB27ED938A95E9F780E094E0A0E6ED9359
:10006C000197E9F7E2E4F0E085919591009761F052
:10007C00A591B59105901590BF01F00105900D92D9
:10008C000197E1F7FB01F0CFEFE5EDBFE4E0EEBF48
:10009C00C0E6D1E061C0229782E0A0E0B0E0E6E2E9
:1000AC00F0E0D7D1C8D100E110E020E130E040E031
:1000BC0050E0359A369A002E012A01F1022E032ABD
:1000CC0071F0349BFECF349AE4B1F5B1AE81BF81AF
:1000DC00EA0FFB1FEE83FF8321503040EFCFEE8100
:1000EC00FF8192D1EE83FF834E0F5F1FE0E0EE8322
:1000FC00EF8320E130E001501040DDCFE6B1A0E20B
:10010C00EA27E6B9E42FF52F7BD14E2F5F2FE42F92
:10011C00F52F98D128960895E3E0E8BBE1E0E7BB22
:10012C00E0E0E5BBE4BBE0E8E2BBE1BBE0E0E5BF5F
:10013C00EBB9EAB9E6E8E0BDE0E0E0BDECE0E9B936
:10014C00E8E0EAB9E0E8E8B9E0E0E0BFE0ECE7B904
:10015C00E5E8E6B978940895DFDFC09A979820FE19
:10016C0012C0E4E1F0E0FA93EA9336D1EAE3F0E06E
:10017C00FA93EA9390DF6627772753D184E0EBD08C
:10018C002696EDE004D1B19915C0E0E020FCE1E049
:10019C0000D120F8E0E0C099E1E0FBD0A8B3A0F9D1
:1001AC00A8BBE0E09799E1E0F4D0A2B3A7F9A2BB19
:1001BC00B19BFECFD4CFFFCF5F9BFECFECB10895A8
:1001CC005D9BFECFE881ECB921960895E6D030977F
:1001DC0041F0E3D03196ED93FC933197AA81A08343
:1001EC0002C0EA81D4D023960895249724D100E04C
:1001FC00EE85FF853196EE87FF87D3D009F4A8C032
:10020C00E02FE03031F4253211F401E001C0CED002
:10021C009EC0E13089F4253219F4C8D000E097C0B3
:10022C0002E030E010E02B3211F43BE290C02032BF
:10023C0011F430E28CC002C0E23031F4203319F4F6
:10024C00106105E084C003C0E53009F080C0E22FE6
:10025C00E33629F4B1D0EC91EA93B5D077C0E3370B
:10026C0069F4AAD0B5D0AE81BF81ED91AE83BF83C6
:10027C002E2FE03011F09AD0F6CF68C0E03761F441
:10028C009BD0A6D0EE81FF813196EE83FF8389D07F
:10029C0011F08CD0F7CF5AC0E43611F0E93611F4D6
:1002AC00116002C0E53719F4E8E2F0E009C0E83566
:1002BC0011F4126003C0E83709F048C0E2E3F0E043
:1002CC00EE83FF8310FF11C077D04D915C914050AD
:1002DC00504034F4E42FF52F8FD04E2F5F2F3DE29A
:1002EC00303011F03A936FD003C066D04D915C91D1
:1002FC0020E3EE81FF813296EE83FF8332978DD01F
:10030C00E887F9874E175F0720F02F5F4E1B5F0BB6
:10031C00C9F714FD09C0E0E3E21730F0A885B985F0
:10032C00A130E0E0BE0751F41061E9E3E21728F4D4
:10033C0011FF02C0295F01C0295D38D0A885B9859D
:10034C00E1E0F0E0EA17FB0708F4D2CF00E050CF71
:10035C0079D060960895FF92F82E229770D0DE0126
:10036C0047D00A2F1B2FE0E0EA83EB83DE011496C3
:10037C003FD04FD0FA93EA931A930A93FE01369624
:10038C00FA93EA9332DF62D02496FF900895EA93B1
:10039C0017CFA1E0EA274AD00895A881B98139D0B6
:1003AC0008953197E4912E2FE03008952A93EB8530
:1003BC00FC85FA93EA930ACFAC85BD851497AC877C
:1003CC00BD8714960895EB85FC85FA93EA93FECECF
:1003DC0020D0EE83FF830895E991F991309639F09E
:1003EC0088EE93E00197F1F7A8953197C9F7089536
:1003FC000024AF0DB01D0895E095F0953196089549
:10040C00F695E795F695E795F695E795F695E795C4
:10041C000895ED91FC91119708950590F491E02DBC
:10042C0008957A936A93FA93EA930895E8940024D2
:10043C00E011689408955A934A933A932A931A9325
:10044C000A9308955D814C813B812A811981088131
:10045C000895AC0FBD1F05900D928A95E1F7089594
:00000001FF
