:0E0000002AC0FECFFDCFFCCFFBCFFACFF9CF49
:10000E00F8CFF7CFF6CFF5CFF4CFF3CFF2CFF1CFC6
:10001E00F0CFEFCFEECFEDCF0000000000000000DC
:10002E001027E80364000A00010000100001100010
:10003E000100000025690A000200020002004600CD
:10004E000200600140000000F894EE27ECBBF1E0E6
:10005E00FBBFEBBFE5BFF8E1F1BDE1BD8DE0A2E076
:10006E00BB27ED938A95E9F780E094E0A0E6ED9347
:10007E000197E9F7E8E4F0E085919591009761F03A
:10008E00A591B59105901590BF01F00105900D92C7
:10009E000197E1F7FB01F0CFEFE5EDBFE4E0EEBF36
:1000AE00C0E6D1E069C0289788E0A0E0B0E0E6E2C3
:1000BE00F0E02FD222D20BE110E020E130E0359AB1
:1000CE00369A002E012A29F1022E032A69F0349B5A
:1000DE00FECF349AE4B1F5B189D166277727BFD127
:1000EE008AD121503040F0CF81D1E2E0C1D183D10D
:1000FE00EC81FD816E817F8183D1B1D186D1E0E02B
:10010E00EC83ED83EE83EF8320E130E0015010406D
:10011E00D8CFE6B1A0E2EA27E6B972D1EBE1F0E082
:10012E0060E070E0B1D171D1E885F9856A857B8593
:10013E00EBD12C960895E2E0E8BBE1E0E7BBE0E00E
:10014E00E5BBE4BBECE0E2BBE4E8E1BBE0E0E5BF2D
:10015E00EBB9EAB9E6E8E0BDE0E0E0BDECE0E9B914
:10016E00E8E0EAB9E0E8E8B9E0E0E0BFE1ECE7B9E1
:10017E00E5E8E6B978940895DEDF839933C021FE71
:10018E0005C0C09A97989298E89421F820FE0DC069
:10019E00E2E4F0E03FD187DF66277727A2D184E043
:1001AE0009D12696EDE0EA932AD0B1991AC0E0E083
:1001BE0020FCE1E0A1E0EA2799D120F8E0E0C09927
:1001CE00E1E0EA2711F4C09801C0C09AE0E09799E7
:1001DE00E1E0A1E0EA2711F4979801C0979AB19B4C
:1001EE00FECF07C0E89420F8C0989798929A68942A
:1001FE0021F8C3CFFFCF5F9BFECFECB108955D9B7F
:10020E00FECFE881ECB92196089579D1AC81BD81FC
:10021E0060D13097D1F0AA81BB815BD18F0130972D
:10022E0049F00230E0E01E0778F0F80131978F01B7
:10023E00ED93FC93AC81BD81ED91FD913196FE93D2
:10024E00EE933197AE81A08303C0EE81EA93D7DFA0
:10025E005DD12796089524974ED110E0E889F9894B
:10026E003196E88BF98BD9D009F4A1C0E12FE0309B
:10027E0031F4353211F411E001C0D4D097C0E13021
:10028E0081F4353211F4CED090C012E020E000E0BF
:10029E003B3211F42BE28AC0303211F420E286C0D8
:1002AE0002C0E23031F4303319F4006115E07EC043
:1002BE0003C0E53009F07AC0E32FE33629F4BAD053
:1002CE00EC91EA93BED071C0E33771F4B3D001D193
:1002DE00BFD0AE81BF81ED91AE83BF833E2FE030A4
:1002EE0011F0A0D0F6CF61C0E03761F4A3D0F1D009
:1002FE00AFD0EE81FF813196ABD08FD011F092D07E
:10030E00F8CF53C0E43611F0E93611F4016002C0A3
:10031E00E53719F4EEE2F0E009C0E83511F40260B9
:10032E0003C0E83709F041C0E8E3F0E0EE83FF8355
:10033E0000FF0FC07FD04D915C914050504024F48F
:10034E00FA0192D0AF012DE2203011F02A9379D02C
:10035E0003C070D04D915C9130E3EE81FF813296F7
:10036E0077D03297BAD0E887F987E885F9854E17A6
:10037E005F0730F03F5FA885B9854A1B5B0BF5CF51
:10038E0004FD06C0313320F4A885B985119749F4D0
:10039E0000613A3328F001FF02C0395F01C0395DB8
:1003AE0041D0A885B9851297B8F610E057CFAAD0DC
:1003BE0062960895FF92F82E2297A1D0DE014BD0BF
:1003CE008D01E0E0EA83EB83DE01149644D081D008
:1003DE0021D01A930A93FE0136961CD0E0E0F0E08D
:1003EE0019D039DF93D02496FF900895AC81BD814A
:1003FE008E819F810895EC83FD836E837F830895A4
:10040E00A885B9858A859B850895E887F9876A87C7
:10041E007B870895FA93EA9308953197E4913E2FDE
:10042E00E03008953A93ED85FE85F4DFFE013D96AA
:10043E00F1DFEBCEAE85BF851497AE87BF871496DE
:10044E000895ED85FE85E6DFFE013D96E3DFDDCE08
:10045E00EE83FF8308950024AF0DB01D0895EA0FBB
:10046E00FB1F681F791F0895F195E195F0400895DF
:10047E00EE230E2EFD01BC0131F076956795F795B2
:10048E00E7950A94D1F708953F934F935F93002415
:10049E0011244427552730E2AA0FBB1F881F991F2E
:1004AE00001C111C441F551F0E1A1F0A460B570B1A
:1004BE0028F40E0E1F1E461F571F01C0A1603A954D
:1004CE0059F7FD01BC01D001CA015F914F913F91D7
:1004DE000895ED91FC91119708950590F491E02DFA
:1004EE0008957A936A93FA93EA930895E894EE2323
:1004FE0009F0689408955A934A933A932A931A935B
:10050E000A9308955D814C813B812A81198108816E
:10051E000895AC0FBD1F05900D928A95E1F70895D1
:00000001FF
