:0600000020C0FECFFDCF81
:10000600FCCFFBCFFACFF9CFF8CFF7CFF6CFF5CFAE
:10001600F4CFF3CFF2CF41C0F0CFEFCFEECFEDCF9D
:100026001027E80364000A00010000100001100018
:10003600010043302E25690A00000000F894EE27DF
:10004600ECBBF1E0FBBFEBBFE5BFF8E1F1BDE1BD05
:100056008DE0A2E0BB27ED938A95E9F780E094E076
:10006600A0E6ED930197E9F7E0E4F0E0859195913C
:10007600009761F0A591B59105901590BF01F0012B
:1000860005900D920197E1F7FB01F0CFEFE5EDBF8B
:10009600E4E0EEBFC0E6D1E062C00A921A92FA929C
:1000A6006A937A938A939A93AA93BA93EA93FA9362
:1000B600EFB7EA93E4B1F5B14E0E5F1EE1E0F0E072
:1000C6006E0E7F1EE3E0F0E0E815F90509F448D16D
:1000D600EFE0F0E0E615F705B1F4A42DB52D92D1C9
:1000E6004E2E5F2EE8E3F0E0FA93EA93E42DF52D29
:1000F60071D1A3D184E018D12696EDE036D16624DD
:10010600772444245524E991EFBFF991E991B991F7
:10011600A9919991899179916991F990199009908C
:100126001895EFEFE8BBE7E0E7BBE0E0E5BBE4BB33
:10013600E2BBE1BBE5BFEBB9EAB9E6E8E0BDE9E160
:10014600E9B9E0E0E0BDE8E0EAB9E0E8E8B9E0E016
:10015600E0BFE0E4E7B9EDE8E6B978940895E1DFB9
:10016600FFD0E4E1F0E0FA93EA9320D1369AE2E395
:10017600F0E0E815F90519F4F3D088249924E1E0B4
:10018600F0E08E0E9F1EEDCFFFCF5F9BFECFECB152
:1001960008955D9BFECFE881ECB921960895E7D0DE
:1001A600309741F0E4D03196ED93FC933197AA81D4
:1001B600A08302C0EA81D9D023960895249742D11C
:1001C60000E0EE85FF853196EE87FF87D4D009F4EF
:1001D600A8C0E02FE03031F4253211F401E001C06F
:1001E600CFD09EC0E13089F4253219F4C9D000E0A1
:1001F60097C002E030E010E02B3211F43BE290C0F1
:10020600203211F430E28CC002C0E23031F42033E7
:1002160019F4106105E084C003C0E53009F080C020
:10022600E22FE33629F4B2D0EC91EA93B6D077C048
:10023600E33769F4ABD0B6D0AE81BF81ED91AE8322
:10024600BF832E2FE03011F09BD0F6CF68C0E03789
:1002560061F49CD0A7D0EE81FF813196EE83FF83B7
:100266008AD011F08DD0F7CF5AC0E43611F0E936B6
:1002760011F4116002C0E53719F4E6E2F0E009C0B6
:10028600E83511F4126003C0E83709F048C0E0E32E
:10029600F0E0EE83FF8310FF11C078D04D915C91A2
:1002A6004050504034F4E42FF52F90D04E2F5F2F5E
:1002B6003DE2303011F03A9370D003C067D04D91D3
:1002C6005C9120E3EE81FF813296EE83FF833297C5
:1002D600B0D0E887F9874E175F0720F02F5F4E1BD7
:1002E6005F0BC9F714FD09C0E0E3E21730F0A885FB
:1002F600B985A130E0E0BE0751F41061E9E3E217E9
:1003060028F411FF02C0295F01C0295D39D0A885F4
:10031600B985E1E0F0E0EA17FB0708F4D2CF00E088
:1003260050CF97D060960895FF92F82E22978ED0E0
:10033600DE0148D00A2F1B2FE0E0EA83EB83DE01C3
:10034600149640D072D0FA93EA931A930A93FE0158
:100356003696FA93EA9332DF80D02496FF9008957A
:10036600E8B3A1E0EA27E8BB0895EA9312CFA88193
:10037600B9815BD008953197E4912E2FE03008952E
:100386002A93EB85FC85FA93EA9309CFAC85BD8564
:100396001497AC87BD8714960895EB85FC85FA9370
:1003A600EA93FDCE42D0EE83FF830895E991F99159
:1003B600309639F088EE93E00197F1F7A8953197DA
:1003C600C9F708950024AF0DB01D0895E095F09586
:1003D600319608956F2F660F660B762F08950024C9
:1003E600112490E1AA0FBB1F001C111C0E1A1F0A34
:1003F60018F40E0E1F1E01C0A1609A9599F7FD0113
:10040600D001089504D0EBDF0EF4E0DF0895E89400
:10041600F7FF02C0DBDF6894B7FF06C0A095B09572
:10042600119600F8039400FA0895ED91FC91119746
:1004360008950590F491E02D08957A936A93FA93BE
:10044600EA9308955A934A933A932A931A930A93EE
:1004560008955D814C813B812A8119810881089527
:00000001FF
